{
  "_format": "hh-sol-artifact-1",
  "contractName": "Web3Jar",
  "sourceName": "contracts/Web3Jar.sol",
  "abi": [
    {
      "inputs": [
        {
          "internalType": "uint256",
          "name": "_target",
          "type": "uint256"
        },
        {
          "internalType": "address",
          "name": "_owner",
          "type": "address"
        },
        {
          "internalType": "string",
          "name": "_jarName",
          "type": "string"
        },
        {
          "internalType": "string",
          "name": "_description",
          "type": "string"
        }
      ],
      "stateMutability": "nonpayable",
      "type": "constructor"
    },
    {
      "inputs": [],
      "name": "description",
      "outputs": [
        {
          "internalType": "string",
          "name": "",
          "type": "string"
        }
      ],
      "stateMutability": "view",
      "type": "function"
    },
    {
      "inputs": [],
      "name": "donate",
      "outputs": [],
      "stateMutability": "payable",
      "type": "function"
    },
    {
      "inputs": [],
      "name": "endFundraising",
      "outputs": [],
      "stateMutability": "nonpayable",
      "type": "function"
    },
    {
      "inputs": [],
      "name": "isActive",
      "outputs": [
        {
          "internalType": "bool",
          "name": "",
          "type": "bool"
        }
      ],
      "stateMutability": "view",
      "type": "function"
    },
    {
      "inputs": [],
      "name": "jarName",
      "outputs": [
        {
          "internalType": "string",
          "name": "",
          "type": "string"
        }
      ],
      "stateMutability": "view",
      "type": "function"
    },
    {
      "inputs": [],
      "name": "owner",
      "outputs": [
        {
          "internalType": "address",
          "name": "",
          "type": "address"
        }
      ],
      "stateMutability": "view",
      "type": "function"
    },
    {
      "inputs": [],
      "name": "target",
      "outputs": [
        {
          "internalType": "uint256",
          "name": "",
          "type": "uint256"
        }
      ],
      "stateMutability": "view",
      "type": "function"
    }
  ],
  "bytecode": "0x60806040526003805460ff60a01b1916600160a01b17905534801561002357600080fd5b5060405161077938038061077983398101604081905261004291610150565b61005484670de0b6b3a76400006101dd565b600055600380546001600160a01b0319166001600160a01b038516179055600161007e8382610291565b50600261008b8282610291565b5050505050610350565b634e487b7160e01b600052604160045260246000fd5b600082601f8301126100bc57600080fd5b81516001600160401b03808211156100d6576100d6610095565b604051601f8301601f19908116603f011681019082821181831017156100fe576100fe610095565b8160405283815260209250868385880101111561011a57600080fd5b600091505b8382101561013c578582018301518183018401529082019061011f565b600093810190920192909252949350505050565b6000806000806080858703121561016657600080fd5b845160208601519094506001600160a01b038116811461018557600080fd5b60408601519093506001600160401b03808211156101a257600080fd5b6101ae888389016100ab565b935060608701519150808211156101c457600080fd5b506101d1878288016100ab565b91505092959194509250565b808202811582820484141761020257634e487b7160e01b600052601160045260246000fd5b92915050565b600181811c9082168061021c57607f821691505b60208210810361023c57634e487b7160e01b600052602260045260246000fd5b50919050565b601f82111561028c57600081815260208120601f850160051c810160208610156102695750805b601f850160051c820191505b8181101561028857828155600101610275565b5050505b505050565b81516001600160401b038111156102aa576102aa610095565b6102be816102b88454610208565b84610242565b602080601f8311600181146102f357600084156102db5750858301515b600019600386901b1c1916600185901b178555610288565b600085815260208120601f198616915b8281101561032257888601518255948401946001909101908401610303565b50858210156103405787850151600019600388901b60f8161c191681555b5050505050600190811b01905550565b61041a8061035f6000396000f3fe6080604052600436106100705760003560e01c80637284e4161161004e5780637284e416146100e85780638da5cb5b146100fd578063d4b8399214610135578063ed88c68e1461015957600080fd5b806308e247ab1461007557806322f3e2d4146100a05780635ebcc621146100d1575b600080fd5b34801561008157600080fd5b5061008a610161565b604051610097919061035c565b60405180910390f35b3480156100ac57600080fd5b506003546100c190600160a01b900460ff1681565b6040519015158152602001610097565b3480156100dd57600080fd5b506100e66101ef565b005b3480156100f457600080fd5b5061008a610294565b34801561010957600080fd5b5060035461011d906001600160a01b031681565b6040516001600160a01b039091168152602001610097565b34801561014157600080fd5b5061014b60005481565b604051908152602001610097565b6100e66102a1565b6001805461016e906103aa565b80601f016020809104026020016040519081016040528092919081815260200182805461019a906103aa565b80156101e75780601f106101bc576101008083540402835291602001916101e7565b820191906000526020600020905b8154815290600101906020018083116101ca57829003601f168201915b505050505081565b6003546001600160a01b031633146102585760405162461bcd60e51b815260206004820152602160248201527f576562334a61723a2043616c6c6572206973206e6f7420746865206f776e65726044820152602160f81b60648201526084015b60405180910390fd5b60405133904780156108fc02916000818181858888f19350505050158015610284573d6000803e3d6000fd5b506003805460ff60a01b19169055565b6002805461016e906103aa565b600354600160a01b900460ff1615156001146102ff5760405162461bcd60e51b815260206004820152601b60248201527f576562334a61723a204a6172206973206e6f7420616374697665210000000000604482015260640161024f565b600054471061035a5760405162461bcd60e51b815260206004820152602160248201527f576562334a61723a2054617267657420616c72656164792061636869657665646044820152602160f81b606482015260840161024f565b565b600060208083528351808285015260005b818110156103895785810183015185820160400152820161036d565b506000604082860101526040601f19601f8301168501019250505092915050565b600181811c908216806103be57607f821691505b6020821081036103de57634e487b7160e01b600052602260045260246000fd5b5091905056fea264697066735822122065b26ff66a1ef2945a66d6dbfc8ef844095598fc34482124454156638a834f4664736f6c63430008110033",
  "linkReferences": {},
  "deployedLinkReferences": {}
}